{
  "address": "0x46b2F108aabB8C9457Ad9dfCE48593354109c7fF",
  "abi": [
    {
      "inputs": [],
      "stateMutability": "nonpayable",
      "type": "constructor"
    },
    {
      "anonymous": false,
      "inputs": [
        {
          "indexed": true,
          "internalType": "address",
          "name": "owner",
          "type": "address"
        },
        {
          "indexed": true,
          "internalType": "address",
          "name": "approved",
          "type": "address"
        },
        {
          "indexed": true,
          "internalType": "uint256",
          "name": "tokenId",
          "type": "uint256"
        }
      ],
      "name": "Approval",
      "type": "event"
    },
    {
      "anonymous": false,
      "inputs": [
        {
          "indexed": true,
          "internalType": "address",
          "name": "owner",
          "type": "address"
        },
        {
          "indexed": true,
          "internalType": "address",
          "name": "operator",
          "type": "address"
        },
        {
          "indexed": false,
          "internalType": "bool",
          "name": "approved",
          "type": "bool"
        }
      ],
      "name": "ApprovalForAll",
      "type": "event"
    },
    {
      "anonymous": false,
      "inputs": [
        {
          "indexed": true,
          "internalType": "uint256",
          "name": "tokenID",
          "type": "uint256"
        },
        {
          "indexed": false,
          "internalType": "string",
          "name": "tokenURI",
          "type": "string"
        }
      ],
      "name": "CreatedSVGNFT",
      "type": "event"
    },
    {
      "anonymous": false,
      "inputs": [
        {
          "indexed": true,
          "internalType": "address",
          "name": "from",
          "type": "address"
        },
        {
          "indexed": true,
          "internalType": "address",
          "name": "to",
          "type": "address"
        },
        {
          "indexed": true,
          "internalType": "uint256",
          "name": "tokenId",
          "type": "uint256"
        }
      ],
      "name": "Transfer",
      "type": "event"
    },
    {
      "inputs": [
        {
          "internalType": "address",
          "name": "to",
          "type": "address"
        },
        {
          "internalType": "uint256",
          "name": "tokenId",
          "type": "uint256"
        }
      ],
      "name": "approve",
      "outputs": [],
      "stateMutability": "nonpayable",
      "type": "function"
    },
    {
      "inputs": [
        {
          "internalType": "address",
          "name": "owner",
          "type": "address"
        }
      ],
      "name": "balanceOf",
      "outputs": [
        {
          "internalType": "uint256",
          "name": "",
          "type": "uint256"
        }
      ],
      "stateMutability": "view",
      "type": "function"
    },
    {
      "inputs": [
        {
          "internalType": "string",
          "name": "svg",
          "type": "string"
        }
      ],
      "name": "create",
      "outputs": [],
      "stateMutability": "nonpayable",
      "type": "function"
    },
    {
      "inputs": [
        {
          "internalType": "string",
          "name": "imageURI",
          "type": "string"
        }
      ],
      "name": "formatTokenURI",
      "outputs": [
        {
          "internalType": "string",
          "name": "",
          "type": "string"
        }
      ],
      "stateMutability": "pure",
      "type": "function"
    },
    {
      "inputs": [
        {
          "internalType": "uint256",
          "name": "tokenId",
          "type": "uint256"
        }
      ],
      "name": "getApproved",
      "outputs": [
        {
          "internalType": "address",
          "name": "",
          "type": "address"
        }
      ],
      "stateMutability": "view",
      "type": "function"
    },
    {
      "inputs": [
        {
          "internalType": "address",
          "name": "owner",
          "type": "address"
        },
        {
          "internalType": "address",
          "name": "operator",
          "type": "address"
        }
      ],
      "name": "isApprovedForAll",
      "outputs": [
        {
          "internalType": "bool",
          "name": "",
          "type": "bool"
        }
      ],
      "stateMutability": "view",
      "type": "function"
    },
    {
      "inputs": [],
      "name": "name",
      "outputs": [
        {
          "internalType": "string",
          "name": "",
          "type": "string"
        }
      ],
      "stateMutability": "view",
      "type": "function"
    },
    {
      "inputs": [
        {
          "internalType": "uint256",
          "name": "tokenId",
          "type": "uint256"
        }
      ],
      "name": "ownerOf",
      "outputs": [
        {
          "internalType": "address",
          "name": "",
          "type": "address"
        }
      ],
      "stateMutability": "view",
      "type": "function"
    },
    {
      "inputs": [
        {
          "internalType": "address",
          "name": "from",
          "type": "address"
        },
        {
          "internalType": "address",
          "name": "to",
          "type": "address"
        },
        {
          "internalType": "uint256",
          "name": "tokenId",
          "type": "uint256"
        }
      ],
      "name": "safeTransferFrom",
      "outputs": [],
      "stateMutability": "nonpayable",
      "type": "function"
    },
    {
      "inputs": [
        {
          "internalType": "address",
          "name": "from",
          "type": "address"
        },
        {
          "internalType": "address",
          "name": "to",
          "type": "address"
        },
        {
          "internalType": "uint256",
          "name": "tokenId",
          "type": "uint256"
        },
        {
          "internalType": "bytes",
          "name": "_data",
          "type": "bytes"
        }
      ],
      "name": "safeTransferFrom",
      "outputs": [],
      "stateMutability": "nonpayable",
      "type": "function"
    },
    {
      "inputs": [
        {
          "internalType": "address",
          "name": "operator",
          "type": "address"
        },
        {
          "internalType": "bool",
          "name": "approved",
          "type": "bool"
        }
      ],
      "name": "setApprovalForAll",
      "outputs": [],
      "stateMutability": "nonpayable",
      "type": "function"
    },
    {
      "inputs": [
        {
          "internalType": "bytes4",
          "name": "interfaceId",
          "type": "bytes4"
        }
      ],
      "name": "supportsInterface",
      "outputs": [
        {
          "internalType": "bool",
          "name": "",
          "type": "bool"
        }
      ],
      "stateMutability": "view",
      "type": "function"
    },
    {
      "inputs": [
        {
          "internalType": "string",
          "name": "svg",
          "type": "string"
        }
      ],
      "name": "svgToImageURI",
      "outputs": [
        {
          "internalType": "string",
          "name": "",
          "type": "string"
        }
      ],
      "stateMutability": "pure",
      "type": "function"
    },
    {
      "inputs": [],
      "name": "symbol",
      "outputs": [
        {
          "internalType": "string",
          "name": "",
          "type": "string"
        }
      ],
      "stateMutability": "view",
      "type": "function"
    },
    {
      "inputs": [],
      "name": "tokenCounter",
      "outputs": [
        {
          "internalType": "uint256",
          "name": "",
          "type": "uint256"
        }
      ],
      "stateMutability": "view",
      "type": "function"
    },
    {
      "inputs": [
        {
          "internalType": "uint256",
          "name": "tokenId",
          "type": "uint256"
        }
      ],
      "name": "tokenURI",
      "outputs": [
        {
          "internalType": "string",
          "name": "",
          "type": "string"
        }
      ],
      "stateMutability": "view",
      "type": "function"
    },
    {
      "inputs": [
        {
          "internalType": "address",
          "name": "from",
          "type": "address"
        },
        {
          "internalType": "address",
          "name": "to",
          "type": "address"
        },
        {
          "internalType": "uint256",
          "name": "tokenId",
          "type": "uint256"
        }
      ],
      "name": "transferFrom",
      "outputs": [],
      "stateMutability": "nonpayable",
      "type": "function"
    }
  ],
  "transactionHash": "0x13b102a4b9c236ad08d6a358aba9de35c306d5eeb1722cceb83c45c27dd26ad2",
  "args": [],
  "solcInputHash": "594aaa5d33ddc42ddd22a2799511ee93",
  "bytecode": "0x60806040523480156200001157600080fd5b506040518060400160405280600781526020017f535647204e4654000000000000000000000000000000000000000000000000008152506040518060400160405280600681526020017f7376674e46540000000000000000000000000000000000000000000000000000815250816000908051906020019062000096929190620000c0565b508060019080519060200190620000af929190620000c0565b5050506000600781905550620001d5565b828054620000ce9062000170565b90600052602060002090601f016020900481019282620000f257600085556200013e565b82601f106200010d57805160ff19168380011785556200013e565b828001600101855582156200013e579182015b828111156200013d57825182559160200191906001019062000120565b5b5090506200014d919062000151565b5090565b5b808211156200016c57600081600090555060010162000152565b5090565b600060028204905060018216806200018957607f821691505b60208210811415620001a0576200019f620001a6565b5b50919050565b7f4e487b7100000000000000000000000000000000000000000000000000000000600052602260045260246000fd5b61314a80620001e56000396000f3fe608060405234801561001057600080fd5b506004361061010b5760003560e01c806370a08231116100a2578063b6a46b3b11610071578063b6a46b3b146102dc578063b88d4fde146102f8578063c87b56dd14610314578063d082e38114610344578063e985e9c5146103625761010b565b806370a082311461024257806371aee1931461027257806395d89b41146102a2578063a22cb465146102c05761010b565b806323b872dd116100de57806323b872dd146101aa57806330d871c6146101c657806342842e0e146101f65780636352211e146102125761010b565b806301ffc9a71461011057806306fdde0314610140578063081812fc1461015e578063095ea7b31461018e575b600080fd5b61012a60048036038101906101259190611fe5565b610392565b60405161013791906129b5565b60405180910390f35b610148610474565b60405161015591906129d0565b60405180910390f35b61017860048036038101906101739190612078565b610506565b604051610185919061294e565b60405180910390f35b6101a860048036038101906101a39190611fa9565b61058b565b005b6101c460048036038101906101bf9190611ea3565b6106a3565b005b6101e060048036038101906101db9190612037565b610703565b6040516101ed91906129d0565b60405180910390f35b610210600480360381019061020b9190611ea3565b6107b7565b005b61022c60048036038101906102279190612078565b6107d7565b604051610239919061294e565b60405180910390f35b61025c60048036038101906102579190611e3e565b610889565b6040516102699190612bf2565b60405180910390f35b61028c60048036038101906102879190612037565b610941565b60405161029991906129d0565b60405180910390f35b6102aa6109ce565b6040516102b791906129d0565b60405180910390f35b6102da60048036038101906102d59190611f6d565b610a60565b005b6102f660048036038101906102f19190612037565b610be1565b005b610312600480360381019061030d9190611ef2565b610c67565b005b61032e60048036038101906103299190612078565b610cc9565b60405161033b91906129d0565b60405180910390f35b61034c610e1b565b6040516103599190612bf2565b60405180910390f35b61037c60048036038101906103779190611e67565b610e21565b60405161038991906129b5565b60405180910390f35b60007f80ac58cd000000000000000000000000000000000000000000000000000000007bffffffffffffffffffffffffffffffffffffffffffffffffffffffff1916827bffffffffffffffffffffffffffffffffffffffffffffffffffffffff1916148061045d57507f5b5e139f000000000000000000000000000000000000000000000000000000007bffffffffffffffffffffffffffffffffffffffffffffffffffffffff1916827bffffffffffffffffffffffffffffffffffffffffffffffffffffffff1916145b8061046d575061046c82610eb5565b5b9050919050565b60606000805461048390612eac565b80601f01602080910402602001604051908101604052809291908181526020018280546104af90612eac565b80156104fc5780601f106104d1576101008083540402835291602001916104fc565b820191906000526020600020905b8154815290600101906020018083116104df57829003601f168201915b5050505050905090565b600061051182610f1f565b610550576040517f08c379a000000000000000000000000000000000000000000000000000000000815260040161054790612b52565b60405180910390fd5b6004600083815260200190815260200160002060009054906101000a900473ffffffffffffffffffffffffffffffffffffffff169050919050565b6000610596826107d7565b90508073ffffffffffffffffffffffffffffffffffffffff168373ffffffffffffffffffffffffffffffffffffffff161415610607576040517f08c379a00000000000000000000000000000000000000000000000000000000081526004016105fe90612bb2565b60405180910390fd5b8073ffffffffffffffffffffffffffffffffffffffff16610626610f8b565b73ffffffffffffffffffffffffffffffffffffffff16148061065557506106548161064f610f8b565b610e21565b5b610694576040517f08c379a000000000000000000000000000000000000000000000000000000000815260040161068b90612a92565b60405180910390fd5b61069e8383610f93565b505050565b6106b46106ae610f8b565b8261104c565b6106f3576040517f08c379a00000000000000000000000000000000000000000000000000000000081526004016106ea90612bd2565b60405180910390fd5b6106fe83838361112a565b505050565b606060006040518060400160405280601a81526020017f646174613a696d6167652f7376672b786d6c3b6261736536342c000000000000815250905060006107698460405160200161075591906128c5565b604051602081830303815290604052611386565b9050600082826040516020016107809291906128dc565b6040516020818303038152906040529050604051806080016040528060538152602001613082605391399050809350505050919050565b6107d283838360405180602001604052806000815250610c67565b505050565b6000806002600084815260200190815260200160002060009054906101000a900473ffffffffffffffffffffffffffffffffffffffff169050600073ffffffffffffffffffffffffffffffffffffffff168173ffffffffffffffffffffffffffffffffffffffff161415610880576040517f08c379a000000000000000000000000000000000000000000000000000000000815260040161087790612ad2565b60405180910390fd5b80915050919050565b60008073ffffffffffffffffffffffffffffffffffffffff168273ffffffffffffffffffffffffffffffffffffffff1614156108fa576040517f08c379a00000000000000000000000000000000000000000000000000000000081526004016108f190612ab2565b60405180910390fd5b600360008373ffffffffffffffffffffffffffffffffffffffff1673ffffffffffffffffffffffffffffffffffffffff168152602001908152602001600020549050919050565b606060006040518060400160405280601d81526020017f646174613a6170706c69636174696f6e2f6a736f6e3b6261736536342c0000008152509050806109a6846040516020016109929190612900565b604051602081830303815290604052611386565b6040516020016109b79291906128dc565b604051602081830303815290604052915050919050565b6060600180546109dd90612eac565b80601f0160208091040260200160405190810160405280929190818152602001828054610a0990612eac565b8015610a565780601f10610a2b57610100808354040283529160200191610a56565b820191906000526020600020905b815481529060010190602001808311610a3957829003601f168201915b5050505050905090565b610a68610f8b565b73ffffffffffffffffffffffffffffffffffffffff168273ffffffffffffffffffffffffffffffffffffffff161415610ad6576040517f08c379a0000000000000000000000000000000000000000000000000000000008152600401610acd90612a52565b60405180910390fd5b8060056000610ae3610f8b565b73ffffffffffffffffffffffffffffffffffffffff1673ffffffffffffffffffffffffffffffffffffffff16815260200190815260200160002060008473ffffffffffffffffffffffffffffffffffffffff1673ffffffffffffffffffffffffffffffffffffffff16815260200190815260200160002060006101000a81548160ff0219169083151502179055508173ffffffffffffffffffffffffffffffffffffffff16610b90610f8b565b73ffffffffffffffffffffffffffffffffffffffff167f17307eab39ab6107e8899845ad3d59bd9653f200f220920489ca2b5937696c3183604051610bd591906129b5565b60405180910390a35050565b610bed33600754611531565b6000610bf882610703565b90506000610c0582610941565b9050610c136007548261154f565b6007547ff5acc616aa8ecd00e5d76674d7812f9c3c3571d662c9fba4499deefa6d0be12d82604051610c4591906129d0565b60405180910390a26001600754610c5c9190612ce1565b600781905550505050565b610c78610c72610f8b565b8361104c565b610cb7576040517f08c379a0000000000000000000000000000000000000000000000000000000008152600401610cae90612bd2565b60405180910390fd5b610cc3848484846115c3565b50505050565b6060610cd482610f1f565b610d13576040517f08c379a0000000000000000000000000000000000000000000000000000000008152600401610d0a90612b32565b60405180910390fd5b6000600660008481526020019081526020016000208054610d3390612eac565b80601f0160208091040260200160405190810160405280929190818152602001828054610d5f90612eac565b8015610dac5780601f10610d8157610100808354040283529160200191610dac565b820191906000526020600020905b815481529060010190602001808311610d8f57829003601f168201915b505050505090506000610dbd61161f565b9050600081511415610dd3578192505050610e16565b600082511115610e08578082604051602001610df09291906128dc565b60405160208183030381529060405292505050610e16565b610e1184611636565b925050505b919050565b60075481565b6000600560008473ffffffffffffffffffffffffffffffffffffffff1673ffffffffffffffffffffffffffffffffffffffff16815260200190815260200160002060008373ffffffffffffffffffffffffffffffffffffffff1673ffffffffffffffffffffffffffffffffffffffff16815260200190815260200160002060009054906101000a900460ff16905092915050565b60007f01ffc9a7000000000000000000000000000000000000000000000000000000007bffffffffffffffffffffffffffffffffffffffffffffffffffffffff1916827bffffffffffffffffffffffffffffffffffffffffffffffffffffffff1916149050919050565b60008073ffffffffffffffffffffffffffffffffffffffff166002600084815260200190815260200160002060009054906101000a900473ffffffffffffffffffffffffffffffffffffffff1673ffffffffffffffffffffffffffffffffffffffff1614159050919050565b600033905090565b816004600083815260200190815260200160002060006101000a81548173ffffffffffffffffffffffffffffffffffffffff021916908373ffffffffffffffffffffffffffffffffffffffff160217905550808273ffffffffffffffffffffffffffffffffffffffff16611006836107d7565b73ffffffffffffffffffffffffffffffffffffffff167f8c5be1e5ebec7d5bd14f71427d1e84f3dd0314c0f7b2291e5b200ac8c7c3b92560405160405180910390a45050565b600061105782610f1f565b611096576040517f08c379a000000000000000000000000000000000000000000000000000000000815260040161108d90612a72565b60405180910390fd5b60006110a1836107d7565b90508073ffffffffffffffffffffffffffffffffffffffff168473ffffffffffffffffffffffffffffffffffffffff16148061111057508373ffffffffffffffffffffffffffffffffffffffff166110f884610506565b73ffffffffffffffffffffffffffffffffffffffff16145b8061112157506111208185610e21565b5b91505092915050565b8273ffffffffffffffffffffffffffffffffffffffff1661114a826107d7565b73ffffffffffffffffffffffffffffffffffffffff16146111a0576040517f08c379a000000000000000000000000000000000000000000000000000000000815260040161119790612b72565b60405180910390fd5b600073ffffffffffffffffffffffffffffffffffffffff168273ffffffffffffffffffffffffffffffffffffffff161415611210576040517f08c379a000000000000000000000000000000000000000000000000000000000815260040161120790612a32565b60405180910390fd5b61121b8383836116dd565b611226600082610f93565b6001600360008573ffffffffffffffffffffffffffffffffffffffff1673ffffffffffffffffffffffffffffffffffffffff16815260200190815260200160002060008282546112769190612dc2565b925050819055506001600360008473ffffffffffffffffffffffffffffffffffffffff1673ffffffffffffffffffffffffffffffffffffffff16815260200190815260200160002060008282546112cd9190612ce1565b92505081905550816002600083815260200190815260200160002060006101000a81548173ffffffffffffffffffffffffffffffffffffffff021916908373ffffffffffffffffffffffffffffffffffffffff160217905550808273ffffffffffffffffffffffffffffffffffffffff168473ffffffffffffffffffffffffffffffffffffffff167fddf252ad1be2c89b69c2b068fc378daa952ba7f163c4a11628f55a4df523b3ef60405160405180910390a4505050565b60606000825114156113a95760405180602001604052806000815250905061152c565b60006040518060600160405280604081526020016130d560409139905060006003600285516113d89190612ce1565b6113e29190612d37565b60046113ee9190612d68565b905060006020826113ff9190612ce1565b67ffffffffffffffff81111561143e577f4e487b7100000000000000000000000000000000000000000000000000000000600052604160045260246000fd5b6040519080825280601f01601f1916602001820160405280156114705781602001600182028036833780820191505090505b509050818152600183018586518101602084015b818310156114eb576003830192508251603f8160121c1685015160f81b8252600182019150603f81600c1c1685015160f81b8252600182019150603f8160061c1685015160f81b8252600182019150603f811685015160f81b825260018201915050611484565b600389510660018114611505576002811461151557611520565b613d3d60f01b6002830352611520565b603d60f81b60018303525b50505050508093505050505b919050565b61154b8282604051806020016040528060008152506116e2565b5050565b61155882610f1f565b611597576040517f08c379a000000000000000000000000000000000000000000000000000000000815260040161158e90612af2565b60405180910390fd5b806006600084815260200190815260200160002090805190602001906115be929190611c62565b505050565b6115ce84848461112a565b6115da8484848461173d565b611619576040517f08c379a0000000000000000000000000000000000000000000000000000000008152600401611610906129f2565b60405180910390fd5b50505050565b606060405180602001604052806000815250905090565b606061164182610f1f565b611680576040517f08c379a000000000000000000000000000000000000000000000000000000000815260040161167790612b92565b60405180910390fd5b600061168a61161f565b905060008151116116aa57604051806020016040528060008152506116d5565b806116b4846118d4565b6040516020016116c59291906128dc565b6040516020818303038152906040525b915050919050565b505050565b6116ec8383611a81565b6116f9600084848461173d565b611738576040517f08c379a000000000000000000000000000000000000000000000000000000000815260040161172f906129f2565b60405180910390fd5b505050565b600061175e8473ffffffffffffffffffffffffffffffffffffffff16611c4f565b156118c7578373ffffffffffffffffffffffffffffffffffffffff1663150b7a02611787610f8b565b8786866040518563ffffffff1660e01b81526004016117a99493929190612969565b602060405180830381600087803b1580156117c357600080fd5b505af19250505080156117f457506040513d601f19601f820116820180604052508101906117f1919061200e565b60015b611877573d8060008114611824576040519150601f19603f3d011682016040523d82523d6000602084013e611829565b606091505b5060008151141561186f576040517f08c379a0000000000000000000000000000000000000000000000000000000008152600401611866906129f2565b60405180910390fd5b805181602001fd5b63150b7a0260e01b7bffffffffffffffffffffffffffffffffffffffffffffffffffffffff1916817bffffffffffffffffffffffffffffffffffffffffffffffffffffffff1916149150506118cc565b600190505b949350505050565b6060600082141561191c576040518060400160405280600181526020017f30000000000000000000000000000000000000000000000000000000000000008152509050611a7c565b600082905060005b6000821461194e57808061193790612ede565b915050600a826119479190612d37565b9150611924565b60008167ffffffffffffffff811115611990577f4e487b7100000000000000000000000000000000000000000000000000000000600052604160045260246000fd5b6040519080825280601f01601f1916602001820160405280156119c25781602001600182028036833780820191505090505b5090505b60008514611a75576001826119db9190612dc2565b9150600a856119ea9190612f27565b60306119f69190612ce1565b60f81b818381518110611a32577f4e487b7100000000000000000000000000000000000000000000000000000000600052603260045260246000fd5b60200101907effffffffffffffffffffffffffffffffffffffffffffffffffffffffffffff1916908160001a905350600a85611a6e9190612d37565b94506119c6565b8093505050505b919050565b600073ffffffffffffffffffffffffffffffffffffffff168273ffffffffffffffffffffffffffffffffffffffff161415611af1576040517f08c379a0000000000000000000000000000000000000000000000000000000008152600401611ae890612b12565b60405180910390fd5b611afa81610f1f565b15611b3a576040517f08c379a0000000000000000000000000000000000000000000000000000000008152600401611b3190612a12565b60405180910390fd5b611b46600083836116dd565b6001600360008473ffffffffffffffffffffffffffffffffffffffff1673ffffffffffffffffffffffffffffffffffffffff1681526020019081526020016000206000828254611b969190612ce1565b92505081905550816002600083815260200190815260200160002060006101000a81548173ffffffffffffffffffffffffffffffffffffffff021916908373ffffffffffffffffffffffffffffffffffffffff160217905550808273ffffffffffffffffffffffffffffffffffffffff16600073ffffffffffffffffffffffffffffffffffffffff167fddf252ad1be2c89b69c2b068fc378daa952ba7f163c4a11628f55a4df523b3ef60405160405180910390a45050565b600080823b905060008111915050919050565b828054611c6e90612eac565b90600052602060002090601f016020900481019282611c905760008555611cd7565b82601f10611ca957805160ff1916838001178555611cd7565b82800160010185558215611cd7579182015b82811115611cd6578251825591602001919060010190611cbb565b5b509050611ce49190611ce8565b5090565b5b80821115611d01576000816000905550600101611ce9565b5090565b6000611d18611d1384612c3e565b612c0d565b905082815260208101848484011115611d3057600080fd5b611d3b848285612e6a565b509392505050565b6000611d56611d5184612c6e565b612c0d565b905082815260208101848484011115611d6e57600080fd5b611d79848285612e6a565b509392505050565b600081359050611d9081613025565b92915050565b600081359050611da58161303c565b92915050565b600081359050611dba81613053565b92915050565b600081519050611dcf81613053565b92915050565b600082601f830112611de657600080fd5b8135611df6848260208601611d05565b91505092915050565b600082601f830112611e1057600080fd5b8135611e20848260208601611d43565b91505092915050565b600081359050611e388161306a565b92915050565b600060208284031215611e5057600080fd5b6000611e5e84828501611d81565b91505092915050565b60008060408385031215611e7a57600080fd5b6000611e8885828601611d81565b9250506020611e9985828601611d81565b9150509250929050565b600080600060608486031215611eb857600080fd5b6000611ec686828701611d81565b9350506020611ed786828701611d81565b9250506040611ee886828701611e29565b9150509250925092565b60008060008060808587031215611f0857600080fd5b6000611f1687828801611d81565b9450506020611f2787828801611d81565b9350506040611f3887828801611e29565b925050606085013567ffffffffffffffff811115611f5557600080fd5b611f6187828801611dd5565b91505092959194509250565b60008060408385031215611f8057600080fd5b6000611f8e85828601611d81565b9250506020611f9f85828601611d96565b9150509250929050565b60008060408385031215611fbc57600080fd5b6000611fca85828601611d81565b9250506020611fdb85828601611e29565b9150509250929050565b600060208284031215611ff757600080fd5b600061200584828501611dab565b91505092915050565b60006020828403121561202057600080fd5b600061202e84828501611dc0565b91505092915050565b60006020828403121561204957600080fd5b600082013567ffffffffffffffff81111561206357600080fd5b61206f84828501611dff565b91505092915050565b60006020828403121561208a57600080fd5b600061209884828501611e29565b91505092915050565b6120aa81612df6565b82525050565b6120b981612e08565b82525050565b60006120ca82612c9e565b6120d48185612cb4565b93506120e4818560208601612e79565b6120ed81613014565b840191505092915050565b600061210382612ca9565b61210d8185612cc5565b935061211d818560208601612e79565b61212681613014565b840191505092915050565b600061213c82612ca9565b6121468185612cd6565b9350612156818560208601612e79565b80840191505092915050565b600061216f603283612cc5565b91507f4552433732313a207472616e7366657220746f206e6f6e20455243373231526560008301527f63656976657220696d706c656d656e74657200000000000000000000000000006020830152604082019050919050565b60006121d5601c83612cc5565b91507f4552433732313a20746f6b656e20616c7265616479206d696e746564000000006000830152602082019050919050565b6000612215601483612cd6565b91507f7b226e616d65223a2022535647204e4654222c200000000000000000000000006000830152601482019050919050565b6000612255602483612cc5565b91507f4552433732313a207472616e7366657220746f20746865207a65726f2061646460008301527f72657373000000000000000000000000000000000000000000000000000000006020830152604082019050919050565b60006122bb601983612cc5565b91507f4552433732313a20617070726f766520746f2063616c6c6572000000000000006000830152602082019050919050565b60006122fb602c83612cc5565b91507f4552433732313a206f70657261746f7220717565727920666f72206e6f6e657860008301527f697374656e7420746f6b656e00000000000000000000000000000000000000006020830152604082019050919050565b6000612361603883612cc5565b91507f4552433732313a20617070726f76652063616c6c6572206973206e6f74206f7760008301527f6e6572206e6f7220617070726f76656420666f7220616c6c00000000000000006020830152604082019050919050565b60006123c7602a83612cc5565b91507f4552433732313a2062616c616e636520717565727920666f7220746865207a6560008301527f726f2061646472657373000000000000000000000000000000000000000000006020830152604082019050919050565b600061242d602983612cc5565b91507f4552433732313a206f776e657220717565727920666f72206e6f6e657869737460008301527f656e7420746f6b656e00000000000000000000000000000000000000000000006020830152604082019050919050565b6000612493602e83612cc5565b91507f45524337323155524953746f726167653a2055524920736574206f66206e6f6e60008301527f6578697374656e7420746f6b656e0000000000000000000000000000000000006020830152604082019050919050565b60006124f9600283612cd6565b91507f227d0000000000000000000000000000000000000000000000000000000000006000830152600282019050919050565b6000612539602083612cc5565b91507f4552433732313a206d696e7420746f20746865207a65726f20616464726573736000830152602082019050919050565b6000612579603183612cc5565b91507f45524337323155524953746f726167653a2055524920717565727920666f722060008301527f6e6f6e6578697374656e7420746f6b656e0000000000000000000000000000006020830152604082019050919050565b60006125df602c83612cc5565b91507f4552433732313a20617070726f76656420717565727920666f72206e6f6e657860008301527f697374656e7420746f6b656e00000000000000000000000000000000000000006020830152604082019050919050565b6000612645602983612cc5565b91507f4552433732313a207472616e73666572206f6620746f6b656e2074686174206960008301527f73206e6f74206f776e00000000000000000000000000000000000000000000006020830152604082019050919050565b60006126ab602f83612cc5565b91507f4552433732314d657461646174613a2055524920717565727920666f72206e6f60008301527f6e6578697374656e7420746f6b656e00000000000000000000000000000000006020830152604082019050919050565b6000612711601283612cd6565b91507f2261747472696275746573223a2022222c2000000000000000000000000000006000830152601282019050919050565b6000612751602783612cd6565b91507f226465736372697074696f6e223a2022416e204e4654206261736564206f6e2060008301527f53564721222c20000000000000000000000000000000000000000000000000006020830152602782019050919050565b60006127b7602183612cc5565b91507f4552433732313a20617070726f76616c20746f2063757272656e74206f776e6560008301527f72000000000000000000000000000000000000000000000000000000000000006020830152604082019050919050565b600061281d603183612cc5565b91507f4552433732313a207472616e736665722063616c6c6572206973206e6f74206f60008301527f776e6572206e6f7220617070726f7665640000000000000000000000000000006020830152604082019050919050565b6000612883600a83612cd6565b91507f22696d616765223a2022000000000000000000000000000000000000000000006000830152600a82019050919050565b6128bf81612e60565b82525050565b60006128d18284612131565b915081905092915050565b60006128e88285612131565b91506128f48284612131565b91508190509392505050565b600061290b82612208565b915061291682612744565b915061292182612704565b915061292c82612876565b91506129388284612131565b9150612943826124ec565b915081905092915050565b600060208201905061296360008301846120a1565b92915050565b600060808201905061297e60008301876120a1565b61298b60208301866120a1565b61299860408301856128b6565b81810360608301526129aa81846120bf565b905095945050505050565b60006020820190506129ca60008301846120b0565b92915050565b600060208201905081810360008301526129ea81846120f8565b905092915050565b60006020820190508181036000830152612a0b81612162565b9050919050565b60006020820190508181036000830152612a2b816121c8565b9050919050565b60006020820190508181036000830152612a4b81612248565b9050919050565b60006020820190508181036000830152612a6b816122ae565b9050919050565b60006020820190508181036000830152612a8b816122ee565b9050919050565b60006020820190508181036000830152612aab81612354565b9050919050565b60006020820190508181036000830152612acb816123ba565b9050919050565b60006020820190508181036000830152612aeb81612420565b9050919050565b60006020820190508181036000830152612b0b81612486565b9050919050565b60006020820190508181036000830152612b2b8161252c565b9050919050565b60006020820190508181036000830152612b4b8161256c565b9050919050565b60006020820190508181036000830152612b6b816125d2565b9050919050565b60006020820190508181036000830152612b8b81612638565b9050919050565b60006020820190508181036000830152612bab8161269e565b9050919050565b60006020820190508181036000830152612bcb816127aa565b9050919050565b60006020820190508181036000830152612beb81612810565b9050919050565b6000602082019050612c0760008301846128b6565b92915050565b6000604051905081810181811067ffffffffffffffff82111715612c3457612c33612fe5565b5b8060405250919050565b600067ffffffffffffffff821115612c5957612c58612fe5565b5b601f19601f8301169050602081019050919050565b600067ffffffffffffffff821115612c8957612c88612fe5565b5b601f19601f8301169050602081019050919050565b600081519050919050565b600081519050919050565b600082825260208201905092915050565b600082825260208201905092915050565b600081905092915050565b6000612cec82612e60565b9150612cf783612e60565b9250827fffffffffffffffffffffffffffffffffffffffffffffffffffffffffffffffff03821115612d2c57612d2b612f58565b5b828201905092915050565b6000612d4282612e60565b9150612d4d83612e60565b925082612d5d57612d5c612f87565b5b828204905092915050565b6000612d7382612e60565b9150612d7e83612e60565b9250817fffffffffffffffffffffffffffffffffffffffffffffffffffffffffffffffff0483118215151615612db757612db6612f58565b5b828202905092915050565b6000612dcd82612e60565b9150612dd883612e60565b925082821015612deb57612dea612f58565b5b828203905092915050565b6000612e0182612e40565b9050919050565b60008115159050919050565b60007fffffffff0000000000000000000000000000000000000000000000000000000082169050919050565b600073ffffffffffffffffffffffffffffffffffffffff82169050919050565b6000819050919050565b82818337600083830152505050565b60005b83811015612e97578082015181840152602081019050612e7c565b83811115612ea6576000848401525b50505050565b60006002820490506001821680612ec457607f821691505b60208210811415612ed857612ed7612fb6565b5b50919050565b6000612ee982612e60565b91507fffffffffffffffffffffffffffffffffffffffffffffffffffffffffffffffff821415612f1c57612f1b612f58565b5b600182019050919050565b6000612f3282612e60565b9150612f3d83612e60565b925082612f4d57612f4c612f87565b5b828206905092915050565b7f4e487b7100000000000000000000000000000000000000000000000000000000600052601160045260246000fd5b7f4e487b7100000000000000000000000000000000000000000000000000000000600052601260045260246000fd5b7f4e487b7100000000000000000000000000000000000000000000000000000000600052602260045260246000fd5b7f4e487b7100000000000000000000000000000000000000000000000000000000600052604160045260246000fd5b6000601f19601f8301169050919050565b61302e81612df6565b811461303957600080fd5b50565b61304581612e08565b811461305057600080fd5b50565b61305c81612e14565b811461306757600080fd5b50565b61307381612e60565b811461307e57600080fd5b5056fe68747470733a2f2f6261667962656963716d7261356374776d643676737232667873796f686971696c617479666b3372696b61677a747a66686b6c75736c726d66636d2e697066732e647765622e6c696e6b2f4142434445464748494a4b4c4d4e4f505152535455565758595a6162636465666768696a6b6c6d6e6f707172737475767778797a303132333435363738392b2fa26469706673582212202e206361d015a4d050d1a87d8e61b25c61895d84eb23cbafd6a07817acd4f30064736f6c63430008000033",
  "devdoc": {
    "kind": "dev",
    "methods": {
      "approve(address,uint256)": {
        "details": "See {IERC721-approve}."
      },
      "balanceOf(address)": {
        "details": "See {IERC721-balanceOf}."
      },
      "getApproved(uint256)": {
        "details": "See {IERC721-getApproved}."
      },
      "isApprovedForAll(address,address)": {
        "details": "See {IERC721-isApprovedForAll}."
      },
      "name()": {
        "details": "See {IERC721Metadata-name}."
      },
      "ownerOf(uint256)": {
        "details": "See {IERC721-ownerOf}."
      },
      "safeTransferFrom(address,address,uint256)": {
        "details": "See {IERC721-safeTransferFrom}."
      },
      "safeTransferFrom(address,address,uint256,bytes)": {
        "details": "See {IERC721-safeTransferFrom}."
      },
      "setApprovalForAll(address,bool)": {
        "details": "See {IERC721-setApprovalForAll}."
      },
      "supportsInterface(bytes4)": {
        "details": "See {IERC165-supportsInterface}."
      },
      "symbol()": {
        "details": "See {IERC721Metadata-symbol}."
      },
      "tokenURI(uint256)": {
        "details": "See {IERC721Metadata-tokenURI}."
      },
      "transferFrom(address,address,uint256)": {
        "details": "See {IERC721-transferFrom}."
      }
    },
    "version": 1
  },
  "userdoc": {
    "kind": "user",
    "methods": {},
    "version": 1
  },
  "storageLayout": {
    "storage": [
      {
        "astId": 25,
        "contract": "contracts/SVGNFT.sol:SVGNFT",
        "label": "_name",
        "offset": 0,
        "slot": "0",
        "type": "t_string_storage"
      },
      {
        "astId": 27,
        "contract": "contracts/SVGNFT.sol:SVGNFT",
        "label": "_symbol",
        "offset": 0,
        "slot": "1",
        "type": "t_string_storage"
      },
      {
        "astId": 31,
        "contract": "contracts/SVGNFT.sol:SVGNFT",
        "label": "_owners",
        "offset": 0,
        "slot": "2",
        "type": "t_mapping(t_uint256,t_address)"
      },
      {
        "astId": 35,
        "contract": "contracts/SVGNFT.sol:SVGNFT",
        "label": "_balances",
        "offset": 0,
        "slot": "3",
        "type": "t_mapping(t_address,t_uint256)"
      },
      {
        "astId": 39,
        "contract": "contracts/SVGNFT.sol:SVGNFT",
        "label": "_tokenApprovals",
        "offset": 0,
        "slot": "4",
        "type": "t_mapping(t_uint256,t_address)"
      },
      {
        "astId": 45,
        "contract": "contracts/SVGNFT.sol:SVGNFT",
        "label": "_operatorApprovals",
        "offset": 0,
        "slot": "5",
        "type": "t_mapping(t_address,t_mapping(t_address,t_bool))"
      },
      {
        "astId": 962,
        "contract": "contracts/SVGNFT.sol:SVGNFT",
        "label": "_tokenURIs",
        "offset": 0,
        "slot": "6",
        "type": "t_mapping(t_uint256,t_string_storage)"
      },
      {
        "astId": 1720,
        "contract": "contracts/SVGNFT.sol:SVGNFT",
        "label": "tokenCounter",
        "offset": 0,
        "slot": "7",
        "type": "t_uint256"
      }
    ],
    "types": {
      "t_address": {
        "encoding": "inplace",
        "label": "address",
        "numberOfBytes": "20"
      },
      "t_bool": {
        "encoding": "inplace",
        "label": "bool",
        "numberOfBytes": "1"
      },
      "t_mapping(t_address,t_bool)": {
        "encoding": "mapping",
        "key": "t_address",
        "label": "mapping(address => bool)",
        "numberOfBytes": "32",
        "value": "t_bool"
      },
      "t_mapping(t_address,t_mapping(t_address,t_bool))": {
        "encoding": "mapping",
        "key": "t_address",
        "label": "mapping(address => mapping(address => bool))",
        "numberOfBytes": "32",
        "value": "t_mapping(t_address,t_bool)"
      },
      "t_mapping(t_address,t_uint256)": {
        "encoding": "mapping",
        "key": "t_address",
        "label": "mapping(address => uint256)",
        "numberOfBytes": "32",
        "value": "t_uint256"
      },
      "t_mapping(t_uint256,t_address)": {
        "encoding": "mapping",
        "key": "t_uint256",
        "label": "mapping(uint256 => address)",
        "numberOfBytes": "32",
        "value": "t_address"
      },
      "t_mapping(t_uint256,t_string_storage)": {
        "encoding": "mapping",
        "key": "t_uint256",
        "label": "mapping(uint256 => string)",
        "numberOfBytes": "32",
        "value": "t_string_storage"
      },
      "t_string_storage": {
        "encoding": "bytes",
        "label": "string",
        "numberOfBytes": "32"
      },
      "t_uint256": {
        "encoding": "inplace",
        "label": "uint256",
        "numberOfBytes": "32"
      }
    }
  }
}